{
  "_format": "hh-sol-artifact-1",
  "contractName": "NFT",
  "sourceName": "contracts/NFT.sol",
  "abi": [
    {
      "inputs": [],
      "stateMutability": "nonpayable",
      "type": "constructor"
    },
    {
      "anonymous": false,
      "inputs": [
        {
          "indexed": true,
          "internalType": "address",
          "name": "owner",
          "type": "address"
        },
        {
          "indexed": true,
          "internalType": "address",
          "name": "approved",
          "type": "address"
        },
        {
          "indexed": true,
          "internalType": "uint256",
          "name": "tokenId",
          "type": "uint256"
        }
      ],
      "name": "Approval",
      "type": "event"
    },
    {
      "anonymous": false,
      "inputs": [
        {
          "indexed": true,
          "internalType": "address",
          "name": "owner",
          "type": "address"
        },
        {
          "indexed": true,
          "internalType": "address",
          "name": "operator",
          "type": "address"
        },
        {
          "indexed": false,
          "internalType": "bool",
          "name": "approved",
          "type": "bool"
        }
      ],
      "name": "ApprovalForAll",
      "type": "event"
    },
    {
      "anonymous": false,
      "inputs": [
        {
          "indexed": true,
          "internalType": "address",
          "name": "from",
          "type": "address"
        },
        {
          "indexed": true,
          "internalType": "address",
          "name": "to",
          "type": "address"
        },
        {
          "indexed": true,
          "internalType": "uint256",
          "name": "tokenId",
          "type": "uint256"
        }
      ],
      "name": "Transfer",
      "type": "event"
    },
    {
      "inputs": [
        {
          "internalType": "address",
          "name": "to",
          "type": "address"
        },
        {
          "internalType": "uint256",
          "name": "tokenId",
          "type": "uint256"
        }
      ],
      "name": "approve",
      "outputs": [],
      "stateMutability": "nonpayable",
      "type": "function"
    },
    {
      "inputs": [
        {
          "internalType": "address",
          "name": "owner",
          "type": "address"
        }
      ],
      "name": "balanceOf",
      "outputs": [
        {
          "internalType": "uint256",
          "name": "",
          "type": "uint256"
        }
      ],
      "stateMutability": "view",
      "type": "function"
    },
    {
      "inputs": [
        {
          "internalType": "string",
          "name": "tokenURI",
          "type": "string"
        }
      ],
      "name": "createNFT",
      "outputs": [
        {
          "internalType": "uint256",
          "name": "",
          "type": "uint256"
        }
      ],
      "stateMutability": "nonpayable",
      "type": "function"
    },
    {
      "inputs": [
        {
          "internalType": "uint256",
          "name": "tokenId",
          "type": "uint256"
        }
      ],
      "name": "getApproved",
      "outputs": [
        {
          "internalType": "address",
          "name": "",
          "type": "address"
        }
      ],
      "stateMutability": "view",
      "type": "function"
    },
    {
      "inputs": [
        {
          "internalType": "address",
          "name": "owner",
          "type": "address"
        },
        {
          "internalType": "address",
          "name": "operator",
          "type": "address"
        }
      ],
      "name": "isApprovedForAll",
      "outputs": [
        {
          "internalType": "bool",
          "name": "",
          "type": "bool"
        }
      ],
      "stateMutability": "view",
      "type": "function"
    },
    {
      "inputs": [],
      "name": "name",
      "outputs": [
        {
          "internalType": "string",
          "name": "",
          "type": "string"
        }
      ],
      "stateMutability": "view",
      "type": "function"
    },
    {
      "inputs": [
        {
          "internalType": "uint256",
          "name": "tokenId",
          "type": "uint256"
        }
      ],
      "name": "ownerOf",
      "outputs": [
        {
          "internalType": "address",
          "name": "",
          "type": "address"
        }
      ],
      "stateMutability": "view",
      "type": "function"
    },
    {
      "inputs": [
        {
          "internalType": "address",
          "name": "from",
          "type": "address"
        },
        {
          "internalType": "address",
          "name": "to",
          "type": "address"
        },
        {
          "internalType": "uint256",
          "name": "tokenId",
          "type": "uint256"
        }
      ],
      "name": "safeTransferFrom",
      "outputs": [],
      "stateMutability": "nonpayable",
      "type": "function"
    },
    {
      "inputs": [
        {
          "internalType": "address",
          "name": "from",
          "type": "address"
        },
        {
          "internalType": "address",
          "name": "to",
          "type": "address"
        },
        {
          "internalType": "uint256",
          "name": "tokenId",
          "type": "uint256"
        },
        {
          "internalType": "bytes",
          "name": "_data",
          "type": "bytes"
        }
      ],
      "name": "safeTransferFrom",
      "outputs": [],
      "stateMutability": "nonpayable",
      "type": "function"
    },
    {
      "inputs": [
        {
          "internalType": "address",
          "name": "operator",
          "type": "address"
        },
        {
          "internalType": "bool",
          "name": "approved",
          "type": "bool"
        }
      ],
      "name": "setApprovalForAll",
      "outputs": [],
      "stateMutability": "nonpayable",
      "type": "function"
    },
    {
      "inputs": [
        {
          "internalType": "bytes4",
          "name": "interfaceId",
          "type": "bytes4"
        }
      ],
      "name": "supportsInterface",
      "outputs": [
        {
          "internalType": "bool",
          "name": "",
          "type": "bool"
        }
      ],
      "stateMutability": "view",
      "type": "function"
    },
    {
      "inputs": [],
      "name": "symbol",
      "outputs": [
        {
          "internalType": "string",
          "name": "",
          "type": "string"
        }
      ],
      "stateMutability": "view",
      "type": "function"
    },
    {
      "inputs": [
        {
          "internalType": "uint256",
          "name": "tokenId",
          "type": "uint256"
        }
      ],
      "name": "tokenURI",
      "outputs": [
        {
          "internalType": "string",
          "name": "",
          "type": "string"
        }
      ],
      "stateMutability": "view",
      "type": "function"
    },
    {
      "inputs": [
        {
          "internalType": "address",
          "name": "from",
          "type": "address"
        },
        {
          "internalType": "address",
          "name": "to",
          "type": "address"
        },
        {
          "internalType": "uint256",
          "name": "tokenId",
          "type": "uint256"
        }
      ],
      "name": "transferFrom",
      "outputs": [],
      "stateMutability": "nonpayable",
      "type": "function"
    }
  ],
  "bytecode": "0x60806040523480156200001157600080fd5b506040518060400160405280601381526020017f4e465420436f6c6c656374696f6e204e616d65000000000000000000000000008152506040518060400160405280600581526020017f5348415045000000000000000000000000000000000000000000000000000000815250816000908051906020019062000096929190620001cf565b508060019080519060200190620000af929190620001cf565b505050620000fd6040518060400160405280601b81526020017f436f6e737472756374696e6720536d61727420436f6e747261637400000000008152506200010360201b62000b291760201c565b620003ac565b620001a3816040516024016200011a9190620002c0565b6040516020818303038152906040527f41304fac000000000000000000000000000000000000000000000000000000007bffffffffffffffffffffffffffffffffffffffffffffffffffffffff19166020820180517bffffffffffffffffffffffffffffffffffffffffffffffffffffffff8381831617835250505050620001a660201b60201c565b50565b60008151905060006a636f6e736f6c652e6c6f679050602083016000808483855afa5050505050565b828054620001dd9062000336565b90600052602060002090601f0160209004810192826200020157600085556200024d565b82601f106200021c57805160ff19168380011785556200024d565b828001600101855582156200024d579182015b828111156200024c5782518255916020019190600101906200022f565b5b5090506200025c919062000260565b5090565b5b808211156200027b57600081600090555060010162000261565b5090565b60006200028c82620002e4565b620002988185620002ef565b9350620002aa81856020860162000300565b620002b5816200039b565b840191505092915050565b60006020820190508181036000830152620002dc81846200027f565b905092915050565b600081519050919050565b600082825260208201905092915050565b60005b838110156200032057808201518184015260208101905062000303565b8381111562000330576000848401525b50505050565b600060028204905060018216806200034f57607f821691505b602082108114156200036657620003656200036c565b5b50919050565b7f4e487b7100000000000000000000000000000000000000000000000000000000600052602260045260246000fd5b6000601f19601f8301169050919050565b612cc180620003bc6000396000f3fe608060405234801561001057600080fd5b50600436106100ea5760003560e01c806370a082311161008c578063b88d4fde11610066578063b88d4fde1461025b578063c87b56dd14610277578063da2ed03e146102a7578063e985e9c5146102d7576100ea565b806370a08231146101f157806395d89b4114610221578063a22cb4651461023f576100ea565b8063095ea7b3116100c8578063095ea7b31461016d57806323b872dd1461018957806342842e0e146101a55780636352211e146101c1576100ea565b806301ffc9a7146100ef57806306fdde031461011f578063081812fc1461013d575b600080fd5b61010960048036038101906101049190611d2d565b610307565b6040516101169190612174565b60405180910390f35b6101276103e9565b604051610134919061218f565b60405180910390f35b61015760048036038101906101529190611dc0565b61047b565b604051610164919061210d565b60405180910390f35b61018760048036038101906101829190611cf1565b610500565b005b6101a3600480360381019061019e9190611beb565b610618565b005b6101bf60048036038101906101ba9190611beb565b610678565b005b6101db60048036038101906101d69190611dc0565b610698565b6040516101e8919061210d565b60405180910390f35b61020b60048036038101906102069190611b86565b61074a565b60405161021891906123b1565b60405180910390f35b610229610802565b604051610236919061218f565b60405180910390f35b61025960048036038101906102549190611cb5565b610894565b005b61027560048036038101906102709190611c3a565b6108aa565b005b610291600480360381019061028c9190611dc0565b61090c565b60405161029e919061218f565b60405180910390f35b6102c160048036038101906102bc9190611d7f565b610a5e565b6040516102ce91906123b1565b60405180910390f35b6102f160048036038101906102ec9190611baf565b610a95565b6040516102fe9190612174565b60405180910390f35b60007f80ac58cd000000000000000000000000000000000000000000000000000000007bffffffffffffffffffffffffffffffffffffffffffffffffffffffff1916827bffffffffffffffffffffffffffffffffffffffffffffffffffffffff191614806103d257507f5b5e139f000000000000000000000000000000000000000000000000000000007bffffffffffffffffffffffffffffffffffffffffffffffffffffffff1916827bffffffffffffffffffffffffffffffffffffffffffffffffffffffff1916145b806103e257506103e182610bc2565b5b9050919050565b6060600080546103f890612607565b80601f016020809104026020016040519081016040528092919081815260200182805461042490612607565b80156104715780601f1061044657610100808354040283529160200191610471565b820191906000526020600020905b81548152906001019060200180831161045457829003601f168201915b5050505050905090565b600061048682610c2c565b6104c5576040517f08c379a00000000000000000000000000000000000000000000000000000000081526004016104bc90612331565b60405180910390fd5b6004600083815260200190815260200160002060009054906101000a900473ffffffffffffffffffffffffffffffffffffffff169050919050565b600061050b82610698565b90508073ffffffffffffffffffffffffffffffffffffffff168373ffffffffffffffffffffffffffffffffffffffff16141561057c576040517f08c379a000000000000000000000000000000000000000000000000000000000815260040161057390612371565b60405180910390fd5b8073ffffffffffffffffffffffffffffffffffffffff1661059b610c98565b73ffffffffffffffffffffffffffffffffffffffff1614806105ca57506105c9816105c4610c98565b610a95565b5b610609576040517f08c379a000000000000000000000000000000000000000000000000000000000815260040161060090612271565b60405180910390fd5b6106138383610ca0565b505050565b610629610623610c98565b82610d59565b610668576040517f08c379a000000000000000000000000000000000000000000000000000000000815260040161065f90612391565b60405180910390fd5b610673838383610e37565b505050565b610693838383604051806020016040528060008152506108aa565b505050565b6000806002600084815260200190815260200160002060009054906101000a900473ffffffffffffffffffffffffffffffffffffffff169050600073ffffffffffffffffffffffffffffffffffffffff168173ffffffffffffffffffffffffffffffffffffffff161415610741576040517f08c379a0000000000000000000000000000000000000000000000000000000008152600401610738906122b1565b60405180910390fd5b80915050919050565b60008073ffffffffffffffffffffffffffffffffffffffff168273ffffffffffffffffffffffffffffffffffffffff1614156107bb576040517f08c379a00000000000000000000000000000000000000000000000000000000081526004016107b290612291565b60405180910390fd5b600360008373ffffffffffffffffffffffffffffffffffffffff1673ffffffffffffffffffffffffffffffffffffffff168152602001908152602001600020549050919050565b60606001805461081190612607565b80601f016020809104026020016040519081016040528092919081815260200182805461083d90612607565b801561088a5780601f1061085f5761010080835404028352916020019161088a565b820191906000526020600020905b81548152906001019060200180831161086d57829003601f168201915b5050505050905090565b6108a661089f610c98565b838361109e565b5050565b6108bb6108b5610c98565b83610d59565b6108fa576040517f08c379a00000000000000000000000000000000000000000000000000000000081526004016108f190612391565b60405180910390fd5b6109068484848461120b565b50505050565b606061091782610c2c565b610956576040517f08c379a000000000000000000000000000000000000000000000000000000000815260040161094d90612311565b60405180910390fd5b600060066000848152602001908152602001600020805461097690612607565b80601f01602080910402602001604051908101604052809291908181526020018280546109a290612607565b80156109ef5780601f106109c4576101008083540402835291602001916109ef565b820191906000526020600020905b8154815290600101906020018083116109d257829003601f168201915b505050505090506000610a00611267565b9050600081511415610a16578192505050610a59565b600082511115610a4b578082604051602001610a339291906120e9565b60405160208183030381529060405292505050610a59565b610a548461127e565b925050505b919050565b6000610a6a6007611325565b6000610a76600761133b565b9050610a823382611349565b610a8c8184611367565b80915050919050565b6000600560008473ffffffffffffffffffffffffffffffffffffffff1673ffffffffffffffffffffffffffffffffffffffff16815260200190815260200160002060008373ffffffffffffffffffffffffffffffffffffffff1673ffffffffffffffffffffffffffffffffffffffff16815260200190815260200160002060009054906101000a900460ff16905092915050565b610bbf81604051602401610b3d919061218f565b6040516020818303038152906040527f41304fac000000000000000000000000000000000000000000000000000000007bffffffffffffffffffffffffffffffffffffffffffffffffffffffff19166020820180517bffffffffffffffffffffffffffffffffffffffffffffffffffffffff83818316178352505050506113db565b50565b60007f01ffc9a7000000000000000000000000000000000000000000000000000000007bffffffffffffffffffffffffffffffffffffffffffffffffffffffff1916827bffffffffffffffffffffffffffffffffffffffffffffffffffffffff1916149050919050565b60008073ffffffffffffffffffffffffffffffffffffffff166002600084815260200190815260200160002060009054906101000a900473ffffffffffffffffffffffffffffffffffffffff1673ffffffffffffffffffffffffffffffffffffffff1614159050919050565b600033905090565b816004600083815260200190815260200160002060006101000a81548173ffffffffffffffffffffffffffffffffffffffff021916908373ffffffffffffffffffffffffffffffffffffffff160217905550808273ffffffffffffffffffffffffffffffffffffffff16610d1383610698565b73ffffffffffffffffffffffffffffffffffffffff167f8c5be1e5ebec7d5bd14f71427d1e84f3dd0314c0f7b2291e5b200ac8c7c3b92560405160405180910390a45050565b6000610d6482610c2c565b610da3576040517f08c379a0000000000000000000000000000000000000000000000000000000008152600401610d9a90612251565b60405180910390fd5b6000610dae83610698565b90508073ffffffffffffffffffffffffffffffffffffffff168473ffffffffffffffffffffffffffffffffffffffff161480610e1d57508373ffffffffffffffffffffffffffffffffffffffff16610e058461047b565b73ffffffffffffffffffffffffffffffffffffffff16145b80610e2e5750610e2d8185610a95565b5b91505092915050565b8273ffffffffffffffffffffffffffffffffffffffff16610e5782610698565b73ffffffffffffffffffffffffffffffffffffffff1614610ead576040517f08c379a0000000000000000000000000000000000000000000000000000000008152600401610ea4906121d1565b60405180910390fd5b600073ffffffffffffffffffffffffffffffffffffffff168273ffffffffffffffffffffffffffffffffffffffff161415610f1d576040517f08c379a0000000000000000000000000000000000000000000000000000000008152600401610f1490612211565b60405180910390fd5b610f28838383611404565b610f33600082610ca0565b6001600360008573ffffffffffffffffffffffffffffffffffffffff1673ffffffffffffffffffffffffffffffffffffffff1681526020019081526020016000206000828254610f83919061251d565b925050819055506001600360008473ffffffffffffffffffffffffffffffffffffffff1673ffffffffffffffffffffffffffffffffffffffff1681526020019081526020016000206000828254610fda9190612496565b92505081905550816002600083815260200190815260200160002060006101000a81548173ffffffffffffffffffffffffffffffffffffffff021916908373ffffffffffffffffffffffffffffffffffffffff160217905550808273ffffffffffffffffffffffffffffffffffffffff168473ffffffffffffffffffffffffffffffffffffffff167fddf252ad1be2c89b69c2b068fc378daa952ba7f163c4a11628f55a4df523b3ef60405160405180910390a4611099838383611409565b505050565b8173ffffffffffffffffffffffffffffffffffffffff168373ffffffffffffffffffffffffffffffffffffffff16141561110d576040517f08c379a000000000000000000000000000000000000000000000000000000000815260040161110490612231565b60405180910390fd5b80600560008573ffffffffffffffffffffffffffffffffffffffff1673ffffffffffffffffffffffffffffffffffffffff16815260200190815260200160002060008473ffffffffffffffffffffffffffffffffffffffff1673ffffffffffffffffffffffffffffffffffffffff16815260200190815260200160002060006101000a81548160ff0219169083151502179055508173ffffffffffffffffffffffffffffffffffffffff168373ffffffffffffffffffffffffffffffffffffffff167f17307eab39ab6107e8899845ad3d59bd9653f200f220920489ca2b5937696c31836040516111fe9190612174565b60405180910390a3505050565b611216848484610e37565b6112228484848461140e565b611261576040517f08c379a0000000000000000000000000000000000000000000000000000000008152600401611258906121b1565b60405180910390fd5b50505050565b606060405180602001604052806000815250905090565b606061128982610c2c565b6112c8576040517f08c379a00000000000000000000000000000000000000000000000000000000081526004016112bf90612351565b60405180910390fd5b60006112d2611267565b905060008151116112f2576040518060200160405280600081525061131d565b806112fc846115a5565b60405160200161130d9291906120e9565b6040516020818303038152906040525b915050919050565b6001816000016000828254019250508190555050565b600081600001549050919050565b611363828260405180602001604052806000815250611752565b5050565b61137082610c2c565b6113af576040517f08c379a00000000000000000000000000000000000000000000000000000000081526004016113a6906122d1565b60405180910390fd5b806006600084815260200190815260200160002090805190602001906113d69291906119aa565b505050565b60008151905060006a636f6e736f6c652e6c6f679050602083016000808483855afa5050505050565b505050565b505050565b600061142f8473ffffffffffffffffffffffffffffffffffffffff166117ad565b15611598578373ffffffffffffffffffffffffffffffffffffffff1663150b7a02611458610c98565b8786866040518563ffffffff1660e01b815260040161147a9493929190612128565b602060405180830381600087803b15801561149457600080fd5b505af19250505080156114c557506040513d601f19601f820116820180604052508101906114c29190611d56565b60015b611548573d80600081146114f5576040519150601f19603f3d011682016040523d82523d6000602084013e6114fa565b606091505b50600081511415611540576040517f08c379a0000000000000000000000000000000000000000000000000000000008152600401611537906121b1565b60405180910390fd5b805181602001fd5b63150b7a0260e01b7bffffffffffffffffffffffffffffffffffffffffffffffffffffffff1916817bffffffffffffffffffffffffffffffffffffffffffffffffffffffff19161491505061159d565b600190505b949350505050565b606060008214156115ed576040518060400160405280600181526020017f3000000000000000000000000000000000000000000000000000000000000000815250905061174d565b600082905060005b6000821461161f5780806116089061266a565b915050600a8261161891906124ec565b91506115f5565b60008167ffffffffffffffff811115611661577f4e487b7100000000000000000000000000000000000000000000000000000000600052604160045260246000fd5b6040519080825280601f01601f1916602001820160405280156116935781602001600182028036833780820191505090505b5090505b60008514611746576001826116ac919061251d565b9150600a856116bb91906126b3565b60306116c79190612496565b60f81b818381518110611703577f4e487b7100000000000000000000000000000000000000000000000000000000600052603260045260246000fd5b60200101907effffffffffffffffffffffffffffffffffffffffffffffffffffffffffffff1916908160001a905350600a8561173f91906124ec565b9450611697565b8093505050505b919050565b61175c83836117d0565b611769600084848461140e565b6117a8576040517f08c379a000000000000000000000000000000000000000000000000000000000815260040161179f906121b1565b60405180910390fd5b505050565b6000808273ffffffffffffffffffffffffffffffffffffffff163b119050919050565b600073ffffffffffffffffffffffffffffffffffffffff168273ffffffffffffffffffffffffffffffffffffffff161415611840576040517f08c379a0000000000000000000000000000000000000000000000000000000008152600401611837906122f1565b60405180910390fd5b61184981610c2c565b15611889576040517f08c379a0000000000000000000000000000000000000000000000000000000008152600401611880906121f1565b60405180910390fd5b61189560008383611404565b6001600360008473ffffffffffffffffffffffffffffffffffffffff1673ffffffffffffffffffffffffffffffffffffffff16815260200190815260200160002060008282546118e59190612496565b92505081905550816002600083815260200190815260200160002060006101000a81548173ffffffffffffffffffffffffffffffffffffffff021916908373ffffffffffffffffffffffffffffffffffffffff160217905550808273ffffffffffffffffffffffffffffffffffffffff16600073ffffffffffffffffffffffffffffffffffffffff167fddf252ad1be2c89b69c2b068fc378daa952ba7f163c4a11628f55a4df523b3ef60405160405180910390a46119a660008383611409565b5050565b8280546119b690612607565b90600052602060002090601f0160209004810192826119d85760008555611a1f565b82601f106119f157805160ff1916838001178555611a1f565b82800160010185558215611a1f579182015b82811115611a1e578251825591602001919060010190611a03565b5b509050611a2c9190611a30565b5090565b5b80821115611a49576000816000905550600101611a31565b5090565b6000611a60611a5b846123f1565b6123cc565b905082815260208101848484011115611a7857600080fd5b611a838482856125c5565b509392505050565b6000611a9e611a9984612422565b6123cc565b905082815260208101848484011115611ab657600080fd5b611ac18482856125c5565b509392505050565b600081359050611ad881612c2f565b92915050565b600081359050611aed81612c46565b92915050565b600081359050611b0281612c5d565b92915050565b600081519050611b1781612c5d565b92915050565b600082601f830112611b2e57600080fd5b8135611b3e848260208601611a4d565b91505092915050565b600082601f830112611b5857600080fd5b8135611b68848260208601611a8b565b91505092915050565b600081359050611b8081612c74565b92915050565b600060208284031215611b9857600080fd5b6000611ba684828501611ac9565b91505092915050565b60008060408385031215611bc257600080fd5b6000611bd085828601611ac9565b9250506020611be185828601611ac9565b9150509250929050565b600080600060608486031215611c0057600080fd5b6000611c0e86828701611ac9565b9350506020611c1f86828701611ac9565b9250506040611c3086828701611b71565b9150509250925092565b60008060008060808587031215611c5057600080fd5b6000611c5e87828801611ac9565b9450506020611c6f87828801611ac9565b9350506040611c8087828801611b71565b925050606085013567ffffffffffffffff811115611c9d57600080fd5b611ca987828801611b1d565b91505092959194509250565b60008060408385031215611cc857600080fd5b6000611cd685828601611ac9565b9250506020611ce785828601611ade565b9150509250929050565b60008060408385031215611d0457600080fd5b6000611d1285828601611ac9565b9250506020611d2385828601611b71565b9150509250929050565b600060208284031215611d3f57600080fd5b6000611d4d84828501611af3565b91505092915050565b600060208284031215611d6857600080fd5b6000611d7684828501611b08565b91505092915050565b600060208284031215611d9157600080fd5b600082013567ffffffffffffffff811115611dab57600080fd5b611db784828501611b47565b91505092915050565b600060208284031215611dd257600080fd5b6000611de084828501611b71565b91505092915050565b611df281612551565b82525050565b611e0181612563565b82525050565b6000611e1282612453565b611e1c8185612469565b9350611e2c8185602086016125d4565b611e35816127a0565b840191505092915050565b6000611e4b8261245e565b611e55818561247a565b9350611e658185602086016125d4565b611e6e816127a0565b840191505092915050565b6000611e848261245e565b611e8e818561248b565b9350611e9e8185602086016125d4565b80840191505092915050565b6000611eb760328361247a565b9150611ec2826127b1565b604082019050919050565b6000611eda60258361247a565b9150611ee582612800565b604082019050919050565b6000611efd601c8361247a565b9150611f088261284f565b602082019050919050565b6000611f2060248361247a565b9150611f2b82612878565b604082019050919050565b6000611f4360198361247a565b9150611f4e826128c7565b602082019050919050565b6000611f66602c8361247a565b9150611f71826128f0565b604082019050919050565b6000611f8960388361247a565b9150611f948261293f565b604082019050919050565b6000611fac602a8361247a565b9150611fb78261298e565b604082019050919050565b6000611fcf60298361247a565b9150611fda826129dd565b604082019050919050565b6000611ff2602e8361247a565b9150611ffd82612a2c565b604082019050919050565b600061201560208361247a565b915061202082612a7b565b602082019050919050565b600061203860318361247a565b915061204382612aa4565b604082019050919050565b600061205b602c8361247a565b915061206682612af3565b604082019050919050565b600061207e602f8361247a565b915061208982612b42565b604082019050919050565b60006120a160218361247a565b91506120ac82612b91565b604082019050919050565b60006120c460318361247a565b91506120cf82612be0565b604082019050919050565b6120e3816125bb565b82525050565b60006120f58285611e79565b91506121018284611e79565b91508190509392505050565b60006020820190506121226000830184611de9565b92915050565b600060808201905061213d6000830187611de9565b61214a6020830186611de9565b61215760408301856120da565b81810360608301526121698184611e07565b905095945050505050565b60006020820190506121896000830184611df8565b92915050565b600060208201905081810360008301526121a98184611e40565b905092915050565b600060208201905081810360008301526121ca81611eaa565b9050919050565b600060208201905081810360008301526121ea81611ecd565b9050919050565b6000602082019050818103600083015261220a81611ef0565b9050919050565b6000602082019050818103600083015261222a81611f13565b9050919050565b6000602082019050818103600083015261224a81611f36565b9050919050565b6000602082019050818103600083015261226a81611f59565b9050919050565b6000602082019050818103600083015261228a81611f7c565b9050919050565b600060208201905081810360008301526122aa81611f9f565b9050919050565b600060208201905081810360008301526122ca81611fc2565b9050919050565b600060208201905081810360008301526122ea81611fe5565b9050919050565b6000602082019050818103600083015261230a81612008565b9050919050565b6000602082019050818103600083015261232a8161202b565b9050919050565b6000602082019050818103600083015261234a8161204e565b9050919050565b6000602082019050818103600083015261236a81612071565b9050919050565b6000602082019050818103600083015261238a81612094565b9050919050565b600060208201905081810360008301526123aa816120b7565b9050919050565b60006020820190506123c660008301846120da565b92915050565b60006123d66123e7565b90506123e28282612639565b919050565b6000604051905090565b600067ffffffffffffffff82111561240c5761240b612771565b5b612415826127a0565b9050602081019050919050565b600067ffffffffffffffff82111561243d5761243c612771565b5b612446826127a0565b9050602081019050919050565b600081519050919050565b600081519050919050565b600082825260208201905092915050565b600082825260208201905092915050565b600081905092915050565b60006124a1826125bb565b91506124ac836125bb565b9250827fffffffffffffffffffffffffffffffffffffffffffffffffffffffffffffffff038211156124e1576124e06126e4565b5b828201905092915050565b60006124f7826125bb565b9150612502836125bb565b92508261251257612511612713565b5b828204905092915050565b6000612528826125bb565b9150612533836125bb565b925082821015612546576125456126e4565b5b828203905092915050565b600061255c8261259b565b9050919050565b60008115159050919050565b60007fffffffff0000000000000000000000000000000000000000000000000000000082169050919050565b600073ffffffffffffffffffffffffffffffffffffffff82169050919050565b6000819050919050565b82818337600083830152505050565b60005b838110156125f25780820151818401526020810190506125d7565b83811115612601576000848401525b50505050565b6000600282049050600182168061261f57607f821691505b6020821081141561263357612632612742565b5b50919050565b612642826127a0565b810181811067ffffffffffffffff8211171561266157612660612771565b5b80604052505050565b6000612675826125bb565b91507fffffffffffffffffffffffffffffffffffffffffffffffffffffffffffffffff8214156126a8576126a76126e4565b5b600182019050919050565b60006126be826125bb565b91506126c9836125bb565b9250826126d9576126d8612713565b5b828206905092915050565b7f4e487b7100000000000000000000000000000000000000000000000000000000600052601160045260246000fd5b7f4e487b7100000000000000000000000000000000000000000000000000000000600052601260045260246000fd5b7f4e487b7100000000000000000000000000000000000000000000000000000000600052602260045260246000fd5b7f4e487b7100000000000000000000000000000000000000000000000000000000600052604160045260246000fd5b6000601f19601f8301169050919050565b7f4552433732313a207472616e7366657220746f206e6f6e20455243373231526560008201527f63656976657220696d706c656d656e7465720000000000000000000000000000602082015250565b7f4552433732313a207472616e736665722066726f6d20696e636f72726563742060008201527f6f776e6572000000000000000000000000000000000000000000000000000000602082015250565b7f4552433732313a20746f6b656e20616c7265616479206d696e74656400000000600082015250565b7f4552433732313a207472616e7366657220746f20746865207a65726f2061646460008201527f7265737300000000000000000000000000000000000000000000000000000000602082015250565b7f4552433732313a20617070726f766520746f2063616c6c657200000000000000600082015250565b7f4552433732313a206f70657261746f7220717565727920666f72206e6f6e657860008201527f697374656e7420746f6b656e0000000000000000000000000000000000000000602082015250565b7f4552433732313a20617070726f76652063616c6c6572206973206e6f74206f7760008201527f6e6572206e6f7220617070726f76656420666f7220616c6c0000000000000000602082015250565b7f4552433732313a2062616c616e636520717565727920666f7220746865207a6560008201527f726f206164647265737300000000000000000000000000000000000000000000602082015250565b7f4552433732313a206f776e657220717565727920666f72206e6f6e657869737460008201527f656e7420746f6b656e0000000000000000000000000000000000000000000000602082015250565b7f45524337323155524953746f726167653a2055524920736574206f66206e6f6e60008201527f6578697374656e7420746f6b656e000000000000000000000000000000000000602082015250565b7f4552433732313a206d696e7420746f20746865207a65726f2061646472657373600082015250565b7f45524337323155524953746f726167653a2055524920717565727920666f722060008201527f6e6f6e6578697374656e7420746f6b656e000000000000000000000000000000602082015250565b7f4552433732313a20617070726f76656420717565727920666f72206e6f6e657860008201527f697374656e7420746f6b656e0000000000000000000000000000000000000000602082015250565b7f4552433732314d657461646174613a2055524920717565727920666f72206e6f60008201527f6e6578697374656e7420746f6b656e0000000000000000000000000000000000602082015250565b7f4552433732313a20617070726f76616c20746f2063757272656e74206f776e6560008201527f7200000000000000000000000000000000000000000000000000000000000000602082015250565b7f4552433732313a207472616e736665722063616c6c6572206973206e6f74206f60008201527f776e6572206e6f7220617070726f766564000000000000000000000000000000602082015250565b612c3881612551565b8114612c4357600080fd5b50565b612c4f81612563565b8114612c5a57600080fd5b50565b612c668161256f565b8114612c7157600080fd5b50565b612c7d816125bb565b8114612c8857600080fd5b5056fea264697066735822122015d73fc870ccb6ea55d2df5d5e89ae8d28c532149a362f55ed75febee6b41b9664736f6c63430008010033",
  "linkReferences": {},
  "deployedLinkReferences": {}
}