{
    "_format": "hh-sol-artifact-1",
    "contractName": "NFT",
    "sourceName": "contracts/NFT.sol",
    "abi": [
        {
            "inputs": [],
            "stateMutability": "nonpayable",
            "type": "constructor"
        },
        {
            "anonymous": false,
            "inputs": [
                {
                    "indexed": true,
                    "internalType": "address",
                    "name": "owner",
                    "type": "address"
                },
                {
                    "indexed": true,
                    "internalType": "address",
                    "name": "approved",
                    "type": "address"
                },
                {
                    "indexed": true,
                    "internalType": "uint256",
                    "name": "tokenId",
                    "type": "uint256"
                }
            ],
            "name": "Approval",
            "type": "event"
        },
        {
            "anonymous": false,
            "inputs": [
                {
                    "indexed": true,
                    "internalType": "address",
                    "name": "owner",
                    "type": "address"
                },
                {
                    "indexed": true,
                    "internalType": "address",
                    "name": "operator",
                    "type": "address"
                },
                {
                    "indexed": false,
                    "internalType": "bool",
                    "name": "approved",
                    "type": "bool"
                }
            ],
            "name": "ApprovalForAll",
            "type": "event"
        },
        {
            "anonymous": false,
            "inputs": [
                {
                    "indexed": true,
                    "internalType": "address",
                    "name": "from",
                    "type": "address"
                },
                {
                    "indexed": true,
                    "internalType": "address",
                    "name": "to",
                    "type": "address"
                },
                {
                    "indexed": true,
                    "internalType": "uint256",
                    "name": "tokenId",
                    "type": "uint256"
                }
            ],
            "name": "Transfer",
            "type": "event"
        },
        {
            "inputs": [
                {
                    "internalType": "address",
                    "name": "to",
                    "type": "address"
                },
                {
                    "internalType": "uint256",
                    "name": "tokenId",
                    "type": "uint256"
                }
            ],
            "name": "approve",
            "outputs": [],
            "stateMutability": "nonpayable",
            "type": "function"
        },
        {
            "inputs": [
                {
                    "internalType": "address",
                    "name": "owner",
                    "type": "address"
                }
            ],
            "name": "balanceOf",
            "outputs": [
                {
                    "internalType": "uint256",
                    "name": "",
                    "type": "uint256"
                }
            ],
            "stateMutability": "view",
            "type": "function"
        },
        {
            "inputs": [],
            "name": "createNFT",
            "outputs": [],
            "stateMutability": "nonpayable",
            "type": "function"
        },
        {
            "inputs": [
                {
                    "internalType": "uint256",
                    "name": "tokenId",
                    "type": "uint256"
                }
            ],
            "name": "getApproved",
            "outputs": [
                {
                    "internalType": "address",
                    "name": "",
                    "type": "address"
                }
            ],
            "stateMutability": "view",
            "type": "function"
        },
        {
            "inputs": [
                {
                    "internalType": "address",
                    "name": "owner",
                    "type": "address"
                },
                {
                    "internalType": "address",
                    "name": "operator",
                    "type": "address"
                }
            ],
            "name": "isApprovedForAll",
            "outputs": [
                {
                    "internalType": "bool",
                    "name": "",
                    "type": "bool"
                }
            ],
            "stateMutability": "view",
            "type": "function"
        },
        {
            "inputs": [],
            "name": "name",
            "outputs": [
                {
                    "internalType": "string",
                    "name": "",
                    "type": "string"
                }
            ],
            "stateMutability": "view",
            "type": "function"
        },
        {
            "inputs": [
                {
                    "internalType": "uint256",
                    "name": "tokenId",
                    "type": "uint256"
                }
            ],
            "name": "ownerOf",
            "outputs": [
                {
                    "internalType": "address",
                    "name": "",
                    "type": "address"
                }
            ],
            "stateMutability": "view",
            "type": "function"
        },
        {
            "inputs": [
                {
                    "internalType": "address",
                    "name": "from",
                    "type": "address"
                },
                {
                    "internalType": "address",
                    "name": "to",
                    "type": "address"
                },
                {
                    "internalType": "uint256",
                    "name": "tokenId",
                    "type": "uint256"
                }
            ],
            "name": "safeTransferFrom",
            "outputs": [],
            "stateMutability": "nonpayable",
            "type": "function"
        },
        {
            "inputs": [
                {
                    "internalType": "address",
                    "name": "from",
                    "type": "address"
                },
                {
                    "internalType": "address",
                    "name": "to",
                    "type": "address"
                },
                {
                    "internalType": "uint256",
                    "name": "tokenId",
                    "type": "uint256"
                },
                {
                    "internalType": "bytes",
                    "name": "_data",
                    "type": "bytes"
                }
            ],
            "name": "safeTransferFrom",
            "outputs": [],
            "stateMutability": "nonpayable",
            "type": "function"
        },
        {
            "inputs": [
                {
                    "internalType": "address",
                    "name": "operator",
                    "type": "address"
                },
                {
                    "internalType": "bool",
                    "name": "approved",
                    "type": "bool"
                }
            ],
            "name": "setApprovalForAll",
            "outputs": [],
            "stateMutability": "nonpayable",
            "type": "function"
        },
        {
            "inputs": [
                {
                    "internalType": "bytes4",
                    "name": "interfaceId",
                    "type": "bytes4"
                }
            ],
            "name": "supportsInterface",
            "outputs": [
                {
                    "internalType": "bool",
                    "name": "",
                    "type": "bool"
                }
            ],
            "stateMutability": "view",
            "type": "function"
        },
        {
            "inputs": [],
            "name": "symbol",
            "outputs": [
                {
                    "internalType": "string",
                    "name": "",
                    "type": "string"
                }
            ],
            "stateMutability": "view",
            "type": "function"
        },
        {
            "inputs": [
                {
                    "internalType": "uint256",
                    "name": "tokenId",
                    "type": "uint256"
                }
            ],
            "name": "tokenURI",
            "outputs": [
                {
                    "internalType": "string",
                    "name": "",
                    "type": "string"
                }
            ],
            "stateMutability": "view",
            "type": "function"
        },
        {
            "inputs": [
                {
                    "internalType": "address",
                    "name": "from",
                    "type": "address"
                },
                {
                    "internalType": "address",
                    "name": "to",
                    "type": "address"
                },
                {
                    "internalType": "uint256",
                    "name": "tokenId",
                    "type": "uint256"
                }
            ],
            "name": "transferFrom",
            "outputs": [],
            "stateMutability": "nonpayable",
            "type": "function"
        }
    ],
    "bytecode": "0x60806040523480156200001157600080fd5b506040518060400160405280601381526020017f4e465420436f6c6c656374696f6e204e616d65000000000000000000000000008152506040518060400160405280600581526020017f5348415045000000000000000000000000000000000000000000000000000000815250816000908051906020019062000096929190620001cf565b508060019080519060200190620000af929190620001cf565b505050620000fd6040518060400160405280601b81526020017f436f6e737472756374696e6720536d61727420436f6e747261637400000000008152506200010360201b62000b301760201c565b620003ac565b620001a3816040516024016200011a9190620002c0565b6040516020818303038152906040527f41304fac000000000000000000000000000000000000000000000000000000007bffffffffffffffffffffffffffffffffffffffffffffffffffffffff19166020820180517bffffffffffffffffffffffffffffffffffffffffffffffffffffffff8381831617835250505050620001a660201b60201c565b50565b60008151905060006a636f6e736f6c652e6c6f679050602083016000808483855afa5050505050565b828054620001dd9062000336565b90600052602060002090601f0160209004810192826200020157600085556200024d565b82601f106200021c57805160ff19168380011785556200024d565b828001600101855582156200024d579182015b828111156200024c5782518255916020019190600101906200022f565b5b5090506200025c919062000260565b5090565b5b808211156200027b57600081600090555060010162000261565b5090565b60006200028c82620002e4565b620002988185620002ef565b9350620002aa81856020860162000300565b620002b5816200039b565b840191505092915050565b60006020820190508181036000830152620002dc81846200027f565b905092915050565b600081519050919050565b600082825260208201905092915050565b60005b838110156200032057808201518184015260208101905062000303565b8381111562000330576000848401525b50505050565b600060028204905060018216806200034f57607f821691505b602082108114156200036657620003656200036c565b5b50919050565b7f4e487b7100000000000000000000000000000000000000000000000000000000600052602260045260246000fd5b6000601f19601f8301169050919050565b612bee80620003bc6000396000f3fe608060405234801561001057600080fd5b50600436106100ea5760003560e01c806370a082311161008c578063a22cb46511610066578063a22cb46514610249578063b88d4fde14610265578063c87b56dd14610281578063e985e9c5146102b1576100ea565b806370a08231146101f15780638a97ec2a1461022157806395d89b411461022b576100ea565b8063095ea7b3116100c8578063095ea7b31461016d57806323b872dd1461018957806342842e0e146101a55780636352211e146101c1576100ea565b806301ffc9a7146100ef57806306fdde031461011f578063081812fc1461013d575b600080fd5b61010960048036038101906101049190611ccc565b6102e1565b60405161011691906120d2565b60405180910390f35b6101276103c3565b60405161013491906120ed565b60405180910390f35b61015760048036038101906101529190611d1e565b610455565b604051610164919061206b565b60405180910390f35b61018760048036038101906101829190611c90565b6104da565b005b6101a3600480360381019061019e9190611b8a565b6105f2565b005b6101bf60048036038101906101ba9190611b8a565b610652565b005b6101db60048036038101906101d69190611d1e565b610672565b6040516101e8919061206b565b60405180910390f35b61020b60048036038101906102069190611b25565b610724565b604051610218919061230f565b60405180910390f35b6102296107dc565b005b610233610840565b60405161024091906120ed565b60405180910390f35b610263600480360381019061025e9190611c54565b6108d2565b005b61027f600480360381019061027a9190611bd9565b6108e8565b005b61029b60048036038101906102969190611d1e565b61094a565b6040516102a891906120ed565b60405180910390f35b6102cb60048036038101906102c69190611b4e565b610a9c565b6040516102d891906120d2565b60405180910390f35b60007f80ac58cd000000000000000000000000000000000000000000000000000000007bffffffffffffffffffffffffffffffffffffffffffffffffffffffff1916827bffffffffffffffffffffffffffffffffffffffffffffffffffffffff191614806103ac57507f5b5e139f000000000000000000000000000000000000000000000000000000007bffffffffffffffffffffffffffffffffffffffffffffffffffffffff1916827bffffffffffffffffffffffffffffffffffffffffffffffffffffffff1916145b806103bc57506103bb82610bc9565b5b9050919050565b6060600080546103d290612534565b80601f01602080910402602001604051908101604052809291908181526020018280546103fe90612534565b801561044b5780601f106104205761010080835404028352916020019161044b565b820191906000526020600020905b81548152906001019060200180831161042e57829003601f168201915b5050505050905090565b600061046082610c33565b61049f576040517f08c379a00000000000000000000000000000000000000000000000000000000081526004016104969061228f565b60405180910390fd5b6004600083815260200190815260200160002060009054906101000a900473ffffffffffffffffffffffffffffffffffffffff169050919050565b60006104e582610672565b90508073ffffffffffffffffffffffffffffffffffffffff168373ffffffffffffffffffffffffffffffffffffffff161415610556576040517f08c379a000000000000000000000000000000000000000000000000000000000815260040161054d906122cf565b60405180910390fd5b8073ffffffffffffffffffffffffffffffffffffffff16610575610c9f565b73ffffffffffffffffffffffffffffffffffffffff1614806105a457506105a38161059e610c9f565b610a9c565b5b6105e3576040517f08c379a00000000000000000000000000000000000000000000000000000000081526004016105da906121cf565b60405180910390fd5b6105ed8383610ca7565b505050565b6106036105fd610c9f565b82610d60565b610642576040517f08c379a0000000000000000000000000000000000000000000000000000000008152600401610639906122ef565b60405180910390fd5b61064d838383610e3e565b505050565b61066d838383604051806020016040528060008152506108e8565b505050565b6000806002600084815260200190815260200160002060009054906101000a900473ffffffffffffffffffffffffffffffffffffffff169050600073ffffffffffffffffffffffffffffffffffffffff168173ffffffffffffffffffffffffffffffffffffffff16141561071b576040517f08c379a00000000000000000000000000000000000000000000000000000000081526004016107129061220f565b60405180910390fd5b80915050919050565b60008073ffffffffffffffffffffffffffffffffffffffff168273ffffffffffffffffffffffffffffffffffffffff161415610795576040517f08c379a000000000000000000000000000000000000000000000000000000000815260040161078c906121ef565b60405180910390fd5b600360008373ffffffffffffffffffffffffffffffffffffffff1673ffffffffffffffffffffffffffffffffffffffff168152602001908152602001600020549050919050565b60006107e860076110a5565b90506107f433826110b3565b610833816040518060400160405280601d81526020017f68747470733a2f2f6a736f6e6b65657065722e636f6d2f622f393337430000008152506110d1565b61083d6007611145565b50565b60606001805461084f90612534565b80601f016020809104026020016040519081016040528092919081815260200182805461087b90612534565b80156108c85780601f1061089d576101008083540402835291602001916108c8565b820191906000526020600020905b8154815290600101906020018083116108ab57829003601f168201915b5050505050905090565b6108e46108dd610c9f565b838361115b565b5050565b6108f96108f3610c9f565b83610d60565b610938576040517f08c379a000000000000000000000000000000000000000000000000000000000815260040161092f906122ef565b60405180910390fd5b610944848484846112c8565b50505050565b606061095582610c33565b610994576040517f08c379a000000000000000000000000000000000000000000000000000000000815260040161098b9061226f565b60405180910390fd5b60006006600084815260200190815260200160002080546109b490612534565b80601f01602080910402602001604051908101604052809291908181526020018280546109e090612534565b8015610a2d5780601f10610a0257610100808354040283529160200191610a2d565b820191906000526020600020905b815481529060010190602001808311610a1057829003601f168201915b505050505090506000610a3e611324565b9050600081511415610a54578192505050610a97565b600082511115610a89578082604051602001610a71929190612047565b60405160208183030381529060405292505050610a97565b610a928461133b565b925050505b919050565b6000600560008473ffffffffffffffffffffffffffffffffffffffff1673ffffffffffffffffffffffffffffffffffffffff16815260200190815260200160002060008373ffffffffffffffffffffffffffffffffffffffff1673ffffffffffffffffffffffffffffffffffffffff16815260200190815260200160002060009054906101000a900460ff16905092915050565b610bc681604051602401610b4491906120ed565b6040516020818303038152906040527f41304fac000000000000000000000000000000000000000000000000000000007bffffffffffffffffffffffffffffffffffffffffffffffffffffffff19166020820180517bffffffffffffffffffffffffffffffffffffffffffffffffffffffff83818316178352505050506113e2565b50565b60007f01ffc9a7000000000000000000000000000000000000000000000000000000007bffffffffffffffffffffffffffffffffffffffffffffffffffffffff1916827bffffffffffffffffffffffffffffffffffffffffffffffffffffffff1916149050919050565b60008073ffffffffffffffffffffffffffffffffffffffff166002600084815260200190815260200160002060009054906101000a900473ffffffffffffffffffffffffffffffffffffffff1673ffffffffffffffffffffffffffffffffffffffff1614159050919050565b600033905090565b816004600083815260200190815260200160002060006101000a81548173ffffffffffffffffffffffffffffffffffffffff021916908373ffffffffffffffffffffffffffffffffffffffff160217905550808273ffffffffffffffffffffffffffffffffffffffff16610d1a83610672565b73ffffffffffffffffffffffffffffffffffffffff167f8c5be1e5ebec7d5bd14f71427d1e84f3dd0314c0f7b2291e5b200ac8c7c3b92560405160405180910390a45050565b6000610d6b82610c33565b610daa576040517f08c379a0000000000000000000000000000000000000000000000000000000008152600401610da1906121af565b60405180910390fd5b6000610db583610672565b90508073ffffffffffffffffffffffffffffffffffffffff168473ffffffffffffffffffffffffffffffffffffffff161480610e2457508373ffffffffffffffffffffffffffffffffffffffff16610e0c84610455565b73ffffffffffffffffffffffffffffffffffffffff16145b80610e355750610e348185610a9c565b5b91505092915050565b8273ffffffffffffffffffffffffffffffffffffffff16610e5e82610672565b73ffffffffffffffffffffffffffffffffffffffff1614610eb4576040517f08c379a0000000000000000000000000000000000000000000000000000000008152600401610eab9061212f565b60405180910390fd5b600073ffffffffffffffffffffffffffffffffffffffff168273ffffffffffffffffffffffffffffffffffffffff161415610f24576040517f08c379a0000000000000000000000000000000000000000000000000000000008152600401610f1b9061216f565b60405180910390fd5b610f2f83838361140b565b610f3a600082610ca7565b6001600360008573ffffffffffffffffffffffffffffffffffffffff1673ffffffffffffffffffffffffffffffffffffffff1681526020019081526020016000206000828254610f8a919061244a565b925050819055506001600360008473ffffffffffffffffffffffffffffffffffffffff1673ffffffffffffffffffffffffffffffffffffffff1681526020019081526020016000206000828254610fe191906123c3565b92505081905550816002600083815260200190815260200160002060006101000a81548173ffffffffffffffffffffffffffffffffffffffff021916908373ffffffffffffffffffffffffffffffffffffffff160217905550808273ffffffffffffffffffffffffffffffffffffffff168473ffffffffffffffffffffffffffffffffffffffff167fddf252ad1be2c89b69c2b068fc378daa952ba7f163c4a11628f55a4df523b3ef60405160405180910390a46110a0838383611410565b505050565b600081600001549050919050565b6110cd828260405180602001604052806000815250611415565b5050565b6110da82610c33565b611119576040517f08c379a00000000000000000000000000000000000000000000000000000000081526004016111109061222f565b60405180910390fd5b806006600084815260200190815260200160002090805190602001906111409291906119b1565b505050565b6001816000016000828254019250508190555050565b8173ffffffffffffffffffffffffffffffffffffffff168373ffffffffffffffffffffffffffffffffffffffff1614156111ca576040517f08c379a00000000000000000000000000000000000000000000000000000000081526004016111c19061218f565b60405180910390fd5b80600560008573ffffffffffffffffffffffffffffffffffffffff1673ffffffffffffffffffffffffffffffffffffffff16815260200190815260200160002060008473ffffffffffffffffffffffffffffffffffffffff1673ffffffffffffffffffffffffffffffffffffffff16815260200190815260200160002060006101000a81548160ff0219169083151502179055508173ffffffffffffffffffffffffffffffffffffffff168373ffffffffffffffffffffffffffffffffffffffff167f17307eab39ab6107e8899845ad3d59bd9653f200f220920489ca2b5937696c31836040516112bb91906120d2565b60405180910390a3505050565b6112d3848484610e3e565b6112df84848484611470565b61131e576040517f08c379a00000000000000000000000000000000000000000000000000000000081526004016113159061210f565b60405180910390fd5b50505050565b606060405180602001604052806000815250905090565b606061134682610c33565b611385576040517f08c379a000000000000000000000000000000000000000000000000000000000815260040161137c906122af565b60405180910390fd5b600061138f611324565b905060008151116113af57604051806020016040528060008152506113da565b806113b984611607565b6040516020016113ca929190612047565b6040516020818303038152906040525b915050919050565b60008151905060006a636f6e736f6c652e6c6f679050602083016000808483855afa5050505050565b505050565b505050565b61141f83836117b4565b61142c6000848484611470565b61146b576040517f08c379a00000000000000000000000000000000000000000000000000000000081526004016114629061210f565b60405180910390fd5b505050565b60006114918473ffffffffffffffffffffffffffffffffffffffff1661198e565b156115fa578373ffffffffffffffffffffffffffffffffffffffff1663150b7a026114ba610c9f565b8786866040518563ffffffff1660e01b81526004016114dc9493929190612086565b602060405180830381600087803b1580156114f657600080fd5b505af192505050801561152757506040513d601f19601f820116820180604052508101906115249190611cf5565b60015b6115aa573d8060008114611557576040519150601f19603f3d011682016040523d82523d6000602084013e61155c565b606091505b506000815114156115a2576040517f08c379a00000000000000000000000000000000000000000000000000000000081526004016115999061210f565b60405180910390fd5b805181602001fd5b63150b7a0260e01b7bffffffffffffffffffffffffffffffffffffffffffffffffffffffff1916817bffffffffffffffffffffffffffffffffffffffffffffffffffffffff1916149150506115ff565b600190505b949350505050565b6060600082141561164f576040518060400160405280600181526020017f300000000000000000000000000000000000000000000000000000000000000081525090506117af565b600082905060005b6000821461168157808061166a90612597565b915050600a8261167a9190612419565b9150611657565b60008167ffffffffffffffff8111156116c3577f4e487b7100000000000000000000000000000000000000000000000000000000600052604160045260246000fd5b6040519080825280601f01601f1916602001820160405280156116f55781602001600182028036833780820191505090505b5090505b600085146117a85760018261170e919061244a565b9150600a8561171d91906125e0565b603061172991906123c3565b60f81b818381518110611765577f4e487b7100000000000000000000000000000000000000000000000000000000600052603260045260246000fd5b60200101907effffffffffffffffffffffffffffffffffffffffffffffffffffffffffffff1916908160001a905350600a856117a19190612419565b94506116f9565b8093505050505b919050565b600073ffffffffffffffffffffffffffffffffffffffff168273ffffffffffffffffffffffffffffffffffffffff161415611824576040517f08c379a000000000000000000000000000000000000000000000000000000000815260040161181b9061224f565b60405180910390fd5b61182d81610c33565b1561186d576040517f08c379a00000000000000000000000000000000000000000000000000000000081526004016118649061214f565b60405180910390fd5b6118796000838361140b565b6001600360008473ffffffffffffffffffffffffffffffffffffffff1673ffffffffffffffffffffffffffffffffffffffff16815260200190815260200160002060008282546118c991906123c3565b92505081905550816002600083815260200190815260200160002060006101000a81548173ffffffffffffffffffffffffffffffffffffffff021916908373ffffffffffffffffffffffffffffffffffffffff160217905550808273ffffffffffffffffffffffffffffffffffffffff16600073ffffffffffffffffffffffffffffffffffffffff167fddf252ad1be2c89b69c2b068fc378daa952ba7f163c4a11628f55a4df523b3ef60405160405180910390a461198a60008383611410565b5050565b6000808273ffffffffffffffffffffffffffffffffffffffff163b119050919050565b8280546119bd90612534565b90600052602060002090601f0160209004810192826119df5760008555611a26565b82601f106119f857805160ff1916838001178555611a26565b82800160010185558215611a26579182015b82811115611a25578251825591602001919060010190611a0a565b5b509050611a339190611a37565b5090565b5b80821115611a50576000816000905550600101611a38565b5090565b6000611a67611a628461234f565b61232a565b905082815260208101848484011115611a7f57600080fd5b611a8a8482856124f2565b509392505050565b600081359050611aa181612b5c565b92915050565b600081359050611ab681612b73565b92915050565b600081359050611acb81612b8a565b92915050565b600081519050611ae081612b8a565b92915050565b600082601f830112611af757600080fd5b8135611b07848260208601611a54565b91505092915050565b600081359050611b1f81612ba1565b92915050565b600060208284031215611b3757600080fd5b6000611b4584828501611a92565b91505092915050565b60008060408385031215611b6157600080fd5b6000611b6f85828601611a92565b9250506020611b8085828601611a92565b9150509250929050565b600080600060608486031215611b9f57600080fd5b6000611bad86828701611a92565b9350506020611bbe86828701611a92565b9250506040611bcf86828701611b10565b9150509250925092565b60008060008060808587031215611bef57600080fd5b6000611bfd87828801611a92565b9450506020611c0e87828801611a92565b9350506040611c1f87828801611b10565b925050606085013567ffffffffffffffff811115611c3c57600080fd5b611c4887828801611ae6565b91505092959194509250565b60008060408385031215611c6757600080fd5b6000611c7585828601611a92565b9250506020611c8685828601611aa7565b9150509250929050565b60008060408385031215611ca357600080fd5b6000611cb185828601611a92565b9250506020611cc285828601611b10565b9150509250929050565b600060208284031215611cde57600080fd5b6000611cec84828501611abc565b91505092915050565b600060208284031215611d0757600080fd5b6000611d1584828501611ad1565b91505092915050565b600060208284031215611d3057600080fd5b6000611d3e84828501611b10565b91505092915050565b611d508161247e565b82525050565b611d5f81612490565b82525050565b6000611d7082612380565b611d7a8185612396565b9350611d8a818560208601612501565b611d93816126cd565b840191505092915050565b6000611da98261238b565b611db381856123a7565b9350611dc3818560208601612501565b611dcc816126cd565b840191505092915050565b6000611de28261238b565b611dec81856123b8565b9350611dfc818560208601612501565b80840191505092915050565b6000611e156032836123a7565b9150611e20826126de565b604082019050919050565b6000611e386025836123a7565b9150611e438261272d565b604082019050919050565b6000611e5b601c836123a7565b9150611e668261277c565b602082019050919050565b6000611e7e6024836123a7565b9150611e89826127a5565b604082019050919050565b6000611ea16019836123a7565b9150611eac826127f4565b602082019050919050565b6000611ec4602c836123a7565b9150611ecf8261281d565b604082019050919050565b6000611ee76038836123a7565b9150611ef28261286c565b604082019050919050565b6000611f0a602a836123a7565b9150611f15826128bb565b604082019050919050565b6000611f2d6029836123a7565b9150611f388261290a565b604082019050919050565b6000611f50602e836123a7565b9150611f5b82612959565b604082019050919050565b6000611f736020836123a7565b9150611f7e826129a8565b602082019050919050565b6000611f966031836123a7565b9150611fa1826129d1565b604082019050919050565b6000611fb9602c836123a7565b9150611fc482612a20565b604082019050919050565b6000611fdc602f836123a7565b9150611fe782612a6f565b604082019050919050565b6000611fff6021836123a7565b915061200a82612abe565b604082019050919050565b60006120226031836123a7565b915061202d82612b0d565b604082019050919050565b612041816124e8565b82525050565b60006120538285611dd7565b915061205f8284611dd7565b91508190509392505050565b60006020820190506120806000830184611d47565b92915050565b600060808201905061209b6000830187611d47565b6120a86020830186611d47565b6120b56040830185612038565b81810360608301526120c78184611d65565b905095945050505050565b60006020820190506120e76000830184611d56565b92915050565b600060208201905081810360008301526121078184611d9e565b905092915050565b6000602082019050818103600083015261212881611e08565b9050919050565b6000602082019050818103600083015261214881611e2b565b9050919050565b6000602082019050818103600083015261216881611e4e565b9050919050565b6000602082019050818103600083015261218881611e71565b9050919050565b600060208201905081810360008301526121a881611e94565b9050919050565b600060208201905081810360008301526121c881611eb7565b9050919050565b600060208201905081810360008301526121e881611eda565b9050919050565b6000602082019050818103600083015261220881611efd565b9050919050565b6000602082019050818103600083015261222881611f20565b9050919050565b6000602082019050818103600083015261224881611f43565b9050919050565b6000602082019050818103600083015261226881611f66565b9050919050565b6000602082019050818103600083015261228881611f89565b9050919050565b600060208201905081810360008301526122a881611fac565b9050919050565b600060208201905081810360008301526122c881611fcf565b9050919050565b600060208201905081810360008301526122e881611ff2565b9050919050565b6000602082019050818103600083015261230881612015565b9050919050565b60006020820190506123246000830184612038565b92915050565b6000612334612345565b90506123408282612566565b919050565b6000604051905090565b600067ffffffffffffffff82111561236a5761236961269e565b5b612373826126cd565b9050602081019050919050565b600081519050919050565b600081519050919050565b600082825260208201905092915050565b600082825260208201905092915050565b600081905092915050565b60006123ce826124e8565b91506123d9836124e8565b9250827fffffffffffffffffffffffffffffffffffffffffffffffffffffffffffffffff0382111561240e5761240d612611565b5b828201905092915050565b6000612424826124e8565b915061242f836124e8565b92508261243f5761243e612640565b5b828204905092915050565b6000612455826124e8565b9150612460836124e8565b92508282101561247357612472612611565b5b828203905092915050565b6000612489826124c8565b9050919050565b60008115159050919050565b60007fffffffff0000000000000000000000000000000000000000000000000000000082169050919050565b600073ffffffffffffffffffffffffffffffffffffffff82169050919050565b6000819050919050565b82818337600083830152505050565b60005b8381101561251f578082015181840152602081019050612504565b8381111561252e576000848401525b50505050565b6000600282049050600182168061254c57607f821691505b602082108114156125605761255f61266f565b5b50919050565b61256f826126cd565b810181811067ffffffffffffffff8211171561258e5761258d61269e565b5b80604052505050565b60006125a2826124e8565b91507fffffffffffffffffffffffffffffffffffffffffffffffffffffffffffffffff8214156125d5576125d4612611565b5b600182019050919050565b60006125eb826124e8565b91506125f6836124e8565b92508261260657612605612640565b5b828206905092915050565b7f4e487b7100000000000000000000000000000000000000000000000000000000600052601160045260246000fd5b7f4e487b7100000000000000000000000000000000000000000000000000000000600052601260045260246000fd5b7f4e487b7100000000000000000000000000000000000000000000000000000000600052602260045260246000fd5b7f4e487b7100000000000000000000000000000000000000000000000000000000600052604160045260246000fd5b6000601f19601f8301169050919050565b7f4552433732313a207472616e7366657220746f206e6f6e20455243373231526560008201527f63656976657220696d706c656d656e7465720000000000000000000000000000602082015250565b7f4552433732313a207472616e736665722066726f6d20696e636f72726563742060008201527f6f776e6572000000000000000000000000000000000000000000000000000000602082015250565b7f4552433732313a20746f6b656e20616c7265616479206d696e74656400000000600082015250565b7f4552433732313a207472616e7366657220746f20746865207a65726f2061646460008201527f7265737300000000000000000000000000000000000000000000000000000000602082015250565b7f4552433732313a20617070726f766520746f2063616c6c657200000000000000600082015250565b7f4552433732313a206f70657261746f7220717565727920666f72206e6f6e657860008201527f697374656e7420746f6b656e0000000000000000000000000000000000000000602082015250565b7f4552433732313a20617070726f76652063616c6c6572206973206e6f74206f7760008201527f6e6572206e6f7220617070726f76656420666f7220616c6c0000000000000000602082015250565b7f4552433732313a2062616c616e636520717565727920666f7220746865207a6560008201527f726f206164647265737300000000000000000000000000000000000000000000602082015250565b7f4552433732313a206f776e657220717565727920666f72206e6f6e657869737460008201527f656e7420746f6b656e0000000000000000000000000000000000000000000000602082015250565b7f45524337323155524953746f726167653a2055524920736574206f66206e6f6e60008201527f6578697374656e7420746f6b656e000000000000000000000000000000000000602082015250565b7f4552433732313a206d696e7420746f20746865207a65726f2061646472657373600082015250565b7f45524337323155524953746f726167653a2055524920717565727920666f722060008201527f6e6f6e6578697374656e7420746f6b656e000000000000000000000000000000602082015250565b7f4552433732313a20617070726f76656420717565727920666f72206e6f6e657860008201527f697374656e7420746f6b656e0000000000000000000000000000000000000000602082015250565b7f4552433732314d657461646174613a2055524920717565727920666f72206e6f60008201527f6e6578697374656e7420746f6b656e0000000000000000000000000000000000602082015250565b7f4552433732313a20617070726f76616c20746f2063757272656e74206f776e6560008201527f7200000000000000000000000000000000000000000000000000000000000000602082015250565b7f4552433732313a207472616e736665722063616c6c6572206973206e6f74206f60008201527f776e6572206e6f7220617070726f766564000000000000000000000000000000602082015250565b612b658161247e565b8114612b7057600080fd5b50565b612b7c81612490565b8114612b8757600080fd5b50565b612b938161249c565b8114612b9e57600080fd5b50565b612baa816124e8565b8114612bb557600080fd5b5056fea2646970667358221220dc64fe1ff4d384c3f24fb840bd7fad9e01f7c3a826b280be5af9e1f1173e078264736f6c63430008010033",
    "linkReferences": {},
    "deployedLinkReferences": {}
}